:10000000FC7F002015060000050600000906000020
:1000100000000000000000000000000000000000E0
:100020000000000000000000000000000D060000BD
:100030000000000000000000110600008D08000014
:1000400010B5064C2378002B07D1054B002B02D0AE
:10005000044800E000BF0123237010BD5C000020B5
:1000600000000000501A000008B5084B002B03D018
:100070000748084900E000BF07480368002B03D089
:10008000064B002B00D0984708BDC046000000007A
:10009000501A0000600000205800002000000000FE
:1000A000154A164B1178002909D115491878097895
:1000B0004118C9B21970802012498002C8611178B4
:1000C0000131C9B211701978F02902D819780929BB
:1000D00009D80B4908784042C0B2087018780978EE
:1000E0004118C9B2197012781B789A4203D1802244
:1000F000044B9202DA617047780000200100002072
:10010000000000200044004110B5C3699C07FCD4E6
:1001100003680224A3430360C46901231C42FBD18A
:100120000468234303600368DC07FCD4C46901232B
:100130001C42FBD1C469DC401C42F7D1084B1A4376
:100140000260C3695A07FCD4C0239B0243608181CB
:10015000C3699C07FCD4036802221343036010BDEB
:1001600004000040037EDA07FCD5018570470000DB
:10017000027E01235107FBD5428B1A4207D1428BE5
:10018000DA401A4203D1428B92081A4202D0034B42
:1001900001221A70008DC0B27047C046790000205D
:1001A00070B50368041C988B1A1C0821FF320842A2
:1001B00026D0802099839872112353704021144BCC
:1001C000917150715E68134DC0202E40800506432A
:1001D0005E605E693540284358610F4818600F48DB
:1001E00018615D680E4828408025AD02284358609C
:1001F0005868800B8003586000235171237105E01B
:10020000137ADA0602D5201C00F07AFB207970BD43
:1002100098010020FFFFFF8F9800002018010020A8
:10022000FF3F00F0002303714371044B01608360C2
:100230000B78022213430B707047C046A1010000E7
:1002400038B5364B2021DA6901200A43DA61344B94
:1002500006241A7802431A70324B0F221978914300
:1002600019701978214319702F490C7820430870B0
:1002700019780A401A701A7860210A431A702B4BB9
:100280002B4A5A805A7852B2002AFBDB294B0121B3
:100290001A780A431A709A78D107FCD42648026863
:1002A000510B1F221140914200D1052111408C01B8
:1002B0001D8D22492940214319850468A10C0A405B
:1002C0001F2A00D11D221C8D1F210A408C4322436E
:1002D0001A8502680721D20D0A408A4200D1032202
:1002E0000A40188D1103164A02400A431A851978EC
:1002F0007F220A401A701A78042112480A431A70A1
:1003000058621A890C218A431A811A8901218A4369
:100310001A810021802201F00AFA38BD0004004051
:10032000584400413C44004159440041000C004005
:100330000640000000500041246080003FF8FFFFAD
:10034000FF8FFFFF98010020F7B5141C1F4A5F01C3
:1003500001971D1CD319061C5869271C4000400F2B
:1003600003301033C74006D00F1C80225968120694
:100370000A435A6009E02F1C7B1E9F41144BBF01AA
:10038000FF18381C221C01F0C9F901990F480835E3
:1003900042181761131C5269A104920B890C920335
:1003A0000A435A6159690B4A0A405A616B01F318B2
:1003B0000222DA715979802252420A435A716B0142
:1003C000F318DB799A07FAD5201CFEBD98010020AE
:1003D00018010020FF3F00F0F8B51A4E051C3378D5
:1003E000141C002B12D1184B184A1A645A6C920B29
:1003F00092035A64586C164A02405A64A2235B0066
:10040000EA5C40200243EA54012333704827FF3757
:10041000EA5D0123134012D00B4B5A6C9204920CEC
:10042000A24202D25C6CA404A40C081C221C074942
:1004300001F074F90123EB550023337000E01C1C1C
:10044000201CF8BD7A00002098010020D800002070
:10045000FF3F00F0FF3083792022002900D11022D5
:100460001343837170470000084BFF305A69920BA9
:1004700092035A6102230372827980235B42134301
:100480008371037A9A07FCD57047C0469801002013
:1004900080235B421943C9B28172704770B5A023B3
:1004A00003225B00C254134B134A5C6CC0211440FE
:1004B00089050C4346255C64FF35402444550F4DA7
:1004C00030261D6490256D0046555D6B154029430F
:1004D000922559636D0080214155094D1D63B0255A
:1004E0006D0044555C6F22405A67B2235B00C154D3
:1004F00070BDC04698010020FFFFFF8FD80000208C
:100500005801002030B5364A1E235168082099430F
:1005100002231943516033498A6902438A61324890
:10052000324A9082908A03439382D3689807FCD51D
:100530002F4B012018701878C40704D52C48407838
:1005400040B20028F7DB01209860587840B20028BC
:10055000FBDB284C26484460587840B20028FBDB7F
:1005600082242348E4014480587840B20028FBDB11
:10057000908C8024A0439084D068C506FCD51E4C86
:100580001A48C462D4681948E506FBD5848C1B4D13
:100590002C438484D4681548E506FBD5848C022559
:1005A0002C438484D0680406FCD51048C0684506F6
:1005B000F8D5D068C406FCD500229A605A7852B2A9
:1005C000002AFBDB0E480A4A50605A7852B2002AD1
:1005D000FBDB00230B724B728B72CB7230BDC046BB
:1005E00000400041000400400C06000000080040EC
:1005F000000C004001050100B805FF7D040A000061
:10060000000703000EBEFEE70DBEFEE705BEFEE7D7
:1006100002BEFEE70E4A0F4838B5824204D10E4AA8
:100620000E4B93420ED10AE00D4C9442F7D00023BA
:10063000D1188842F3D9E55804330D60F8E700F08B
:1006400011F804E09342FAD2002102C3FAE7FEE770
:10065000000000205C000020A80300205C000020B7
:10066000541A0000F0B56C4B8BB01B680193019AD3
:100670006A4B9A4266D16A4B1E786A4B36021B78E7
:100680001E43694B1D78694B2D021B781B041D43CB
:10069000674B1B781D4380239B021B781B061D4361
:1006A000F0235B029D424DD80024211CAC4207D0B0
:1006B00060482318187800F0F5FE0134011CF5E7B6
:1006C000B1423FD102A95C4A0B1C70CA70C391CAE7
:1006D00091C360CA60C3594A93685B035B0F9B0078
:1006E000595880238D009B015808D06154481080D0
:1006F000147D5248E707FBD5524C5B19A342F3D94E
:1007000043688024A34343604E084F484F49A401E7
:100710004F4B1380137DDD07FCD50023B34202D17C
:100720004C4D158006E08B42FAD05D00475B0133EB
:100730006753F3E7157DEF07FCD55D006419401999
:10074000C91AE5D1444B18681C1C013021D0434A1A
:10075000191D1160D9B200291BD1414A107801221C
:100760001040404A0AD115683F498D4201D11060BE
:100770000FE011603D4901390029FCD11160226868
:1007800082F30888FF229343394A9360324B5B68B7
:100790001847FFF7B7FE62B600F0EEFD00F07CF8F8
:1007A000344B8022920234499A6008220A6033490D
:1007B000041C0A60802212059A609A61304B314A0B
:1007C000C0215A602A4A0906106A0002000A014341
:1007D000116200229A6007221A60201CA2689047CA
:1007E000294B002801D001221A701A78002A05D05E
:1007F000002000F0B5FA00F03BFBFCE71B78002B73
:10080000EBD100F02DFE0028E7D0012000F0A8FA7F
:1008100000F02EFBFCE7C046FCFF01005A415021CE
:1008200004000200050002000200020001000200B4
:1008300003000200060002006417000000400041AF
:1008400002A5FFFFFFFF01000A000200FDEF00000C
:1008500044A5FFFF04A5FFFF0020000018020020B0
:1008600038040040FC7F00203581730748E8010010
:1008700000ED00E0004400418844004198440041FC
:1008800010E000E0E70300007B00002008B5FFF760
:1008900007FC00F0C9FA08BD10B5054B054C2360F4
:1008A000FFF7CEFC201C2168FFF7BCFC201C10BD0C
:1008B000005000411C02002070B5051CC0B0081C8F
:1008C000161C0C1C00F03BFF40006A46032302305C
:1008D0005370107076080123E218013A11785A001B
:1008E000002906D1281C69460023FFF72DFD40B0E2
:1008F00070BDB342F6DA684681520133ECE700007E
:10090000F7B5BA4A04681378B949271CFF37051CA4
:10091000102038720B705378B648B74E0370937836
:100920003380D178338809020B4333801179B34B7C
:100930001980517918880902084318809079B049C4
:100940000880D2790888120202430A8040227A7114
:10095000A84F3A78A64F120238780F1C0243A948D4
:100960008446181C624500D1C2E020DC8021490089
:100970008A4200D16EE109DC812A00D192E0822A0C
:1009800000D195E0802A00D064E18BE081235B00F8
:100990009A4200D1CFE000DA58E1C0239B009A428E
:1009A00000D157E1984B9A4200D14FE152E1902398
:1009B0001B019A4269D015DCD023DB009A4222D079
:1009C00088231B019A4269D0A023DB009A4200D001
:1009D00040E1201CFFF748FD3188286889B2FFF705
:1009E00057FD3BE1894B9A4200D12FE100DC31E118
:1009F000874B9A4200D11DE1864B9A4200D029E1F3
:100A000033886B7122E133881B0A012B08D10B88D4
:100A100012222868934201D80A8892B27E4911E1D5
:100A200033881B0A022B08D10B8843222868934283
:100A300001D80A8892B2794904E133881B0A032B52
:100A400000D007E13388DBB2012B17D0002B07D091
:100A5000022B00D0FEE00A882868D2B2704911E06B
:100A6000042201A86F4900F059FE3B88042228683F
:100A7000934201D83A8892B201A9E3E00A88286833
:100A80006949D2B2FFF718FFE8E03388201C2B71C8
:100A9000FFF7EAFC201CFFF701FDDFE0291C01C97C
:100AA0000122CFE0614900230B8028680222CAE0BE
:100AB0005E4900220A801888502210405C4A10705B
:100AC0001E880F20304018801888032800D9C1E004
:100AD00012781B8808335B01E418A379002A01D03F
:100AE0009B0600E0DB06DB0F0B8028680222A9E0F2
:100AF00019887F2291434E4AC9B2117018880F217C
:100B0000014019803188002900D0A3E0198800290C
:100B100000D19FE01988032900D99BE012781B8837
:100B200008335B01E318002A02D020225A718DE0BD
:100B3000102159718AE002887F239A433C4BD2B23C
:100B40001A7001880F220A4002803288002A00D0E1
:100B500080E00288002A00D17CE00288032A00D9C4
:100B600078E01B78002B1FD0038808335B01E31863
:100B70009B799A066AD50388202208335B01E31823
:100B80001A71038808335B01E318DB795F065DD5D2
:100B90000388402208335B01E318DA7103880222DC
:100BA00008335B01E3181EE0038808335B01E31898
:100BB0009B79D9064AD50388102208335B01E318D4
:100BC0001A71038808335B01E318DB799A063DD577
:100BD0000388202208335B01E318DA7103880122BD
:100BE00008335B01E3181A7130E0C046980000201A
:100BF0007D0000208200002084000020860000206C
:100C000080000020020300000103000021200000FA
:100C1000A121000021220000A417000004000020F0
:100C20009417000084170000881700007E00002041
:100C30007C0000200B8808222868934201D80A888B
:100C400092B207490023FFF77FFB07E0201CFFF764
:100C50000BFC03E0201C0121FFF7FCFBF7BDC046A5
:100C60004800002007B5054B0122019001A9186832
:100C7000131CFFF769FB01200EBDC0461C020020BB
:100C800013B5054B6C4607341868211C0122FFF789
:100C9000A3FB207816BDC0461C02002010B5074CEF
:100CA000201CFFF77DFA031C0020834205D0226838
:100CB0004823FF33D05C0123184010BD1C020020E4
:100CC00010B5054A0C1C031C191C10680123221CBA
:100CD000FFF73AFB201C10BD1C02002070B5084C29
:100CE000061C201C0D1CFFF75BFA0023984205D060
:100CF0002068311C2A1CFFF76FFB031C181C70BDF9
:100D00001C020020F8B50C4C051C201C0E1CFFF723
:100D100047FA0023271C341C98420AD0002C07D025
:100D2000291C221C3868FFF757FB241A2D18F5E7F9
:100D3000331C181CF8BDC0461C02002008B5031C5B
:100D4000081C111C9847044B802212055A61034B62
:100D500064221A8008BDC046004400418C00002077
:100D6000012805D1054B064A1A60064B187004E0AD
:100D7000002802D1044A014B1A6070478C020020FF
:100D8000D8170000940000202418000030B50A1C79
:100D90001C4985B00978031C00292AD0042A01D1F6
:100DA000006804E0022A01D1008800E000785200C7
:100DB00004A98B180B3B9C1AA3420BD00F210140B6
:100DC000092902D83025294300E03731197000097C
:100DD000013BF1E701A930230B7078234B700A2007
:100DE0008B1898700D20D870074B04321B68D86898
:100DF00003E005490968C868191CFFF79FFF05B0A3
:100E000030BDC046880000208C02002072B6EFF38F
:100E10000883044A1360036883F30888436818470B
:100E20007047C046900200200D4B1A88002A09D056
:100E30001A88013A92B21A80002A03D18022094B03
:100E400012059A61084B1A88002A08D01A88013ABC
:100E500092B21A80002A02D1044B08221A6070470D
:100E60008C000020004400418A000020984400418A
:100E7000F0B591B008A9CE4A0B1C31CA31C351CA92
:100E800051C360CA60C3CB4BCB489A687A255203E2
:100E9000520F92005258C94902609C68A4B2624342
:100EA0000C60C74900240A60C64A1460C64C25700D
:100EB000C64CC74D2368281C1B6940219847002851
:100EC00005D0C44B08221A60C34B64221A80C34B5E
:100ED00000221860C24B1D60C24BC24DBF4F1A604A
:100EE0002A683B689A42E3D2BD4B1B681A78FF2AF6
:100EF00000D120E2232A00D0F7E1BB4E3378002B4B
:100F000006D0B24BB9491B680222D868FFF716FF1A
:100F1000AD4B1B78532B3FD13B682A6893421ED9B7
:100F2000AF4801322A609A1AB14B01681B6801313F
:100F30000160B04E9A4201D2326000E03360A148B5
:100F400032680068049000F0E9FB336829685A1899
:100F50002A60A34A1668F1181160A74A13702B681B
:100F6000013B2B609E4B1A68013A1A60A24BA04AC3
:100F70001B7811688B420DD222689248C91A00680A
:100F800092699047002805D0924B08221A60924B34
:100F900064221A80C04696E1522B0ED18948944AA9
:100FA0002368006811685B6903909847934B80221F
:100FB00012055A616422924B0DE04F2B05D1814BF3
:100FC0008B4A1B6812681A707DE1482B05D17D4B56
:100FD000874A1B6812681A8075E1572B05D1794B37
:100FE000834A1B6812681A606DE16F2B03D1754B41
:100FF0000121186807E0682B08D1724B7C481B68F8
:1010000002211B880360FFF7C1FE5CE1772B06D14C
:101010006C4B77481B6804211B680360F3E7472B80
:1010200013D1734B1868FFF7F1FE764B1B6883F3FF
:10103000088862B6744B1B78002B00D143E1634BE8
:1010400006201B681B6898473DE1542B04D10123FF
:1010500033705E4B1B6864E04E2B0CD13378002B51
:1010600006D15A4B61491B680222D868FFF766FE19
:101070000023337027E1562B57D123686349D86882
:101080000122FFF75BFE23686149D8680322FFF75E
:1010900055FE604D2368291CD8680122FFF74EFEDB
:1010A00023685D49D8680D22FFF748FE2368291C94
:1010B000D8680122FFF742FE494F4A4D57490023A5
:1010C00039602B603A1C281C13685E1C16601B7864
:1010D0000593002B03D0036801330360F4E73B4E14
:1010E0002A683368D868FFF729FE33684949D86809
:1010F0000122FFF723FE0599296049493960384AE2
:101100001368581C10601B78002B04D0354B1A68EC
:1011100001321A60F3E733682A68D868FFF70EFED9
:101120003368D86831490222CBE0314A582B17D1B5
:10113000214E234D366813682A68B10093420AD2C3
:101140001C4D5808E861374828801A4D287DC6078D
:10115000FBD55B18F2E71D4B33491B68D868AFE03D
:10116000592B00D07DE01268164B3049002A02D17D
:101170001B680B6070E00F4D086819686B680D4EB6
:101180008025AB4392087360002A65D0284B094D37
:101190002B80084E337DDD07FBD50023064D2D68DF
:1011A0000195AD08AB4247D3224D024E35804AE04F
:1011B000B817000000400041440200203C0200201B
:1011C0003802002088020020340200208C02002017
:1011D00048020020944400418A0000202C02002094
:1011E0003002002040020020880000201818000073
:1011F00094020020980200202802002000440041B0
:101200008C0000209002002094000020F4170000C1
:101210001D180000F617000040180000F817000025
:101220000418000002A5FFFF0D1800009000002028
:1012300044A5FFFF04A5FFFF9342B5D09D0046598A
:1012400001334E51AAE7404E357DEE07FBD59D0098
:1012500049194019D21A97E73C4B3D491B68D86899
:101260002EE05A2B2FD13B4B17681D680026EF1933
:10127000BD4206D02878311C00F014F90135061C57
:10128000F6E7324B34491B680122D868FFF756FD58
:1012900007230F223240111C36093031092A00DDA4
:1012A00007311820C0186A468154013BF1D22368E7
:1012B00006A9D8680822FFF741FD23682749D868A6
:1012C0000322FFF73BFD264B7A221A70254B0022A2
:1012D0001A60254B1B7893422DD01C4B23491B6869
:1012E0000122D868FFF72AFD25E0111C3039C8B269
:1012F0001C4B092804D81D682A01114319601AE003
:10130000111C4139052903D81E68373A310106E01E
:10131000111C6139052904D81868573A01010A439C
:1013200008E02C2A03D10B4A1968116001E00C492E
:101330000A7000221A600E4B1A6801321A600D4BB7
:101340001A680132C9E5C046004000418C02002005
:10135000111800008802002015180000171800005E
:101360003402002094020020880000201B18000096
:10137000400200203002002010B51C4B01201A78DA
:10138000022402431A701A4B0F22197891431970E4
:1013900019782143197017490C782043087019787F
:1013A0000A401A701A7820210A431A70124B04213D
:1013B0001A6A0A431A62114B114A5A805A7852B279
:1013C000002AFBDBC4220F480F499203FEF79CFE64
:1013D0000E4A002313700E4A13700E4A13700E4A01
:1013E00013700E4A13700E4A137010BD4A44004128
:1013F000354400414B44004100040040000C0040D3
:1014000014400000000800422AF600009C02002060
:10141000230300209D020020A002002024030020BE
:101420002103002008B5C1B20248FEF79BFE01204F
:1014300008BDC04600080042024B187E4007C00F9E
:101440007047C0460008004208B5FFF7F5FF0028C6
:10145000FBD00248FEF78CFE08BDC04600080042E3
:1014600008B5FFF7E9FF0023984205D0FFF7ECFF2E
:10147000031C233B5A425341181C08BD70B5041C81
:101480000D1C4618B44204D02078FFF7CBFF01347E
:10149000F8E7281C70BD10B5041CFFF7D5FF2070BD
:1014A000012010BD0B0A5840034B4000C05A0902EE
:1014B000484080B27047C0464E180000F7B500247F
:1014C000051C0F1C261CBC4220D0FFF7BDFF114B92
:1014D000C0B21B780190002B1AD1311CFFF7E2FF3C
:1014E0000D4B061C1A88002A04D10C4A11782A1CBC
:1014F000002907D001996A1C2970802F02D1198810
:10150000013919800134A4B2151CDCE7301C00E05D
:101510000120FEBD210300209E02002022030020A6
:10152000F0B53E4E85B0002203900C1C32703C4B4F
:10153000914201D1012201E03A490C801A707F23C7
:101540001C4201D080349C43FFF77EFF3378C0B249
:10155000002B07D000253570FFF776FF3378C0B237
:10156000AB4236D1432803D0712853D01528EBD194
:10157000012300930120FFF755FF0098FFF752FF6A
:1015800000998025C843C0B2FFF74CFF039B00279A
:101590000293244A1388002B1DD121490193097815
:1015A000002918D10198FFF73DFF391C0198FFF77A
:1015B00079FF013D071C002DEBD1000AC0B2FFF7F7
:1015C00031FFF8B2FFF72EFFFFF73EFF3378002B15
:1015D0000AD035701FE00299013B09781380029B05
:1015E000019101330293DDE7C0B2062807D1009BC9
:1015F00003990133DBB280310093803C0391002CCE
:10160000B8D10420FFF70EFFFFF71EFF044B0125A2
:101610001C7000E00025281C05B0F0BD210300204F
:10162000220300209E020020F0B5384C87B0002332
:1016300001902370994201D1012301E0344A1180C5
:10164000344A642613704320FFF7ECFE324FFFF755
:10165000F3FE002803D1002F03D0013FF7E7002F4E
:1016600003D1013E002EEED14DE00125FFF7ECFE47
:101670002378002B38D1C0B20290012805D004286D
:101680003DD10620FFF7CEFE39E005AE0221301C29
:10169000FFF714FF01988021FFF710FF23780390D4
:1016A000002B18D1FFF7D0FE0702FFF7CDFEBFB227
:1016B00023783F18BFB2012B0DD0039B9F4207D167
:1016C0003378AB4204D1EB437278DBB29A4204D058
:1016D0001820FFF7A7FE002303E00620FFF7A2FE75
:1016E000029B2278002A02D0002626700BE0012BF4
:1016F00005D1019A6B1C8032DDB20192B6E7054A32
:10170000002313700126301C07B0F0BD2103002018
:101710009E0200202203002000350C0010B500239B
:10172000934203D0CC5CC4540133F9E710BD031CD1
:101730008218934202D019700133FAE770470023F0
:10174000C25C0133002AFBD1581E7047F8B5C04671
:10175000F8BC08BC9E467047F8B5C046F8BC08BC4B
:101760009E467047080000001000000020000000A6
:1017700040000000800000000001000000020000A6
:10178000000400000403090441726475696E6F204F
:101790004C4C430041726475696E6F205A65726FDC
:1017A00000000000120100020200004041234D0031
:1017B000000201020001000008000000100000000B
:1017C0002000000040000000800000000001000038
:1017D000000200000004000025140000491400006D
:1017E000391400007D14000097140000211500003A
:1017F0002916000076002000466562203132203232
:101800003032310032333A32303A303500580A0D36
:1018100000590A0D005A00230A0D003E00322E30F6
:1018200000000000650C0000810C00009D0C000011
:10183000C10C0000DD0C0000C10C0000050D000013
:101840005B41726475696E6F3A58595A5D000000C9
:101850002110422063308440A550C660E7700881A3
:1018600029914AA16BB18CC1ADD1CEE1EFF131121A
:10187000100273325222B5529442F772D6623993F3
:1018800018837BB35AA3BDD39CC3FFF3DEE362246A
:10189000433420040114E664C774A44485546AA543
:1018A0004BB528850995EEE5CFF5ACC58DD55336FA
:1018B000722611163006D776F6669556B4465BB793
:1018C0007AA719973887DFF7FEE79DD7BCC7C448CA
:1018D000E5588668A7784008611802282338CCC9E3
:1018E000EDD98EE9AFF9488969990AA92BB9F55A5A
:1018F000D44AB77A966A711A500A333A122AFDDB33
:10190000DCCBBFFB9EEB799B588B3BBB1AABA66C29
:10191000877CE44CC55C222C033C600C411CAEED82
:101920008FFDECCDCDDD2AAD0BBD688D499D977E39
:10193000B66ED55EF44E133E322E511E700E9FFFD2
:10194000BEEFDDDFFCCF1BBF3AAF599F788F889188
:10195000A981CAB1EBA10CD12DC14EF16FE180106C
:10196000A100C230E3200450254046706760B9836F
:101970009893FBA3DAB33DC31CD37FE35EF3B102BC
:101980009012F322D2323542145277625672EAB57F
:10199000CBA5A89589856EF54FE52CD50DC5E2340C
:1019A000C324A01481046674476424540544DBA74F
:1019B000FAB79987B8975FE77EF71DC73CD7D3265C
:1019C000F2369106B01657667676154634564CD9DF
:1019D0006DC90EF92FE9C899E9898AB9ABA94458AC
:1019E000654806782768C018E1088238A3287DCBAF
:1019F0005CDB3FEB1EFBF98BD89BBBAB9ABB754AFC
:101A0000545A376A167AF10AD01AB32A923A2EFD3E
:101A10000FED6CDD4DCDAABD8BADE89DC98D267C4B
:101A2000076C645C454CA23C832CE01CC10C1FEF8E
:101A30003EFF5DCF7CDF9BAFBABFD98FF89F176E9B
:101A4000367E554E745E932EB23ED10EF01E0000CF
:041A50000000000092
:101A5400011400000902430002010080320904005D
:101A64000001020200000524001001042402000504
:101A7400240600010524010001070583030800FF73
:101A840009040100020A0000000705810240000069
:101A9400070502024000000000C201000000080027
:0C1AA4006900000041000000000000008C
:0400000300000615DE
:00000001FF
